:020000040800F2
:1000000090050020F101000833220008731D00084C
:10001000312200085D0200084B25000800000000A6
:10002000000000000000000000000000372200086F
:100030005F02000800000000352200083922000895
:100040000B0200080B0200080B0200080B0200085C
:100050000B0200080B0200080B0200080B0200084C
:100060000B0200080B0200080B0200080B0200083C
:100070000B0200080B0200080B0200080B0200082C
:100080000B020008000000000B0200080B02000831
:100090000B0200080B0200080B0200080B0200080C
:1000A0000B0200080B0200080B0200080B020008FC
:1000B000D1220008DD2200080B0200080B02000814
:1000C0000B0200080B0200080B0200080B020008DC
:1000D0000B0200080B0200080B0200080B020008CC
:1000E0000B0200080B0200080B0200080B020008BC
:1000F0000B0200080B0200080B02000800000000C1
:10010000000000000B020008000000000B020008C5
:100110000B020008000000000B0200080B020008A0
:100120000B0200080B0200080B0200080B0200087B
:100130000B02000800000000000000000B02000895
:100140000B0200080B020008000000000000000085
:10015000000000000000000000000000000000009F
:100160000000000000000000000000000B0200087A
:100170000B0200080000000000000000000000006A
:10018000000000000B02000800000000000000005A
:10019000000000000000000000000000000000005F
:1001A00000000000000000000B0200080B02000825
:1001B0000B0200080B0200080B0200080000000000
:1001C000000000000B02000800000000000000001A
:1001D0000B0200080B020008DFF810D000F02CF82A
:1001E000004800478B250008AFF3008090050020F1
:1001F0000648804706480047FEE7FEE7FEE7FEE7C1
:10020000FEE7FEE7FEE7FEE7FEE7FEE7C1220008A5
:10021000D9010008D2B201E000F8012B491EFBD23F
:1002200070470022F6E710B513460A460446194601
:10023000FFF7F0FF204610BD064C074D06E0E068D2
:1002400040F0010394E8070098471034AC42F6D31D
:10025000FFF7C6FFC0250008E0250008FEE770474D
:1002600072B6FEE72DE9F047044690F858009CB0BE
:100270000E464FF00009012815D0012084F85800DF
:1002800000251795189520684FF0A04840450ED1DD
:10029000284F0097384601F0C3FD8246206801F0E0
:1002A000BFFD60B10EE002201CB0BDE8F087E06D3C
:1002B00040F02000E06584F858500120F4E7BAF1DE
:1002C000000F09D0E06D40F02000E0654FF001091B
:1002D00084F858504846E7E71748326840F61F71DF
:1002E000002A826822F4604216D094F8383042EA3C
:1002F000433273681A438260D8F80820BB6802F062
:10030000010203F001031A43E2D1B36832681A43D1
:1003100083688B431A430BE08260D8F80820BB68DF
:1003200002F0010203F001031A43D1D182688A432B
:100330008260CDE700010050000300502DE9F84F26
:1003400000270446009790F85800DFF8E0930D4628
:10035000B846012811D0012684F85860206801F0C1
:100360005BFD60B1E06D40F02000E0655FF00107EB
:1003700084F858803846BDE8F88F0220FBE7D5E9BD
:1003800000210C23206803EA91131844036B01F049
:100390001F014FF01F0C0CFA01FCC2F3846223EA28
:1003A0000C038A4013430363206801F035FD824645
:1003B000206801F02DFD5AEA00003CD1AA682968A6
:1003C0002068B2F1004F37D001F02EFD206841695E
:1003D00021F00041416120686969C268C2F3C1022D
:1003E000520091402A69042A31D000EB82002B6828
:1003F000026EDFF83CC303F0F84302EA0C020B4341
:100400001A4342F00041016620682A69A96900EB9D
:100410008200026E22F080720A430266297F2268FF
:100420002869012910D0002102EB8000026E22F021
:1004300000720A4302667DE0002201F0F5FC2068AC
:10044000416941F00041C5E74FF00071ECE7002140
:1004500001F0D8FC400320684FF0000172D001F099
:10046000D1FC90FAA0F0B0FA80F1286842036ED077
:1004700090FAA0F0B0FA80F0814204D10022114637
:10048000206801F0E0FC0121206801F0BBFC400382
:1004900020684FF001015DD001F0B4FC90FAA0F0AB
:1004A000B0FA80F12868420359D090FAA0F0B0FA6F
:1004B00080F0814204D100220121206801F0C3FCB8
:1004C0000221206801F09EFC400320684FF00201E9
:1004D00048D001F097FC90FAA0F0B0FA80F12868BB
:1004E000420344D090FAA0F0B0FA80F0814204D1E7
:1004F00000220221206801F0A6FC0321206801F0FF
:1005000081FC400320684FF0030133D001F07AFCF6
:1005100090FAA0F0B0FA80F1286842032FD090FA48
:10052000A0F0B0FA80F0814204D1002203212068BB
:1005300001F089FC2068816811F0010F22D0ACE045
:1005400000E004E001F05EFCC0F384618DE7C0F3DD
:10055000846091E701F056FCC0F38461A2E7C0F328
:100560008460A6E701F04EFCC0F38461B7E7C0F3F6
:100570008460BBE701F046FCC0F38461CCE7C0F3C4
:100580008460D0E72A7B296850F8B03FC1F3120C91
:1005900023EA0C0302F0180C664A22FA0CF20A4015
:1005A00013430360E968494577D1286841031CD0AB
:1005B00090FAA0F1B1FA81F1491C01F01F0109295B
:1005C0004FEA403132D8002912D000BF90FAA0F192
:1005D000B1FA81F101F1010101F01F0106FA01F602
:1005E00009D100BFC0F3846109E0C0F38461E3E78F
:1005F000C0F38461EEE790FAA0F1B1FA81F101F164
:10060000010101F01F0146EA816102D1C0F384605B
:1006100003E090FAA0F0B0FA80F000F1010000F0E1
:100620001F0000EB400041EA005132E000290ED0EB
:1006300090FAA0F1B1FA81F101F1010101F01F017D
:1006400006FA01F606D100BFC0F3846106E0C0F3EC
:100650008461F1E790FAA0F1B1FA81F101F10101B1
:1006600001F01F0146EA816102D1C0F3846003E01A
:1006700090FAA0F0B0FA80F000F1010000F01F0045
:100680002D4A00EB400002EB005041EA000141F02E
:100690000071AA68206801F0C7FB28482A68024256
:1006A0003FF466AE26488168264B01F0E0719A421D
:1006B00002D0254B9A421CD10B021AD42268B2F107
:1006C000A04F7FF455AE826841F4000122F0E07241
:1006D0000A4382601D481E490068B0FBF1F0401CCF
:1006E00000EB4000800000E0401E00900028FBD19D
:1006F0003EE6184D184BAA4207D1CD0105D4226819
:100700009A42F5D041F0807109E0144DAA42EFD130
:100710004A02EDD422689A42EAD041F4800182680C
:1007200022F0E0720A43826022E6000000007F406F
:1007300000F0FF03FFFF0700000020FE000008801C
:1007400000030050000021C31000C09018000020DA
:10075000400D0300000052C700010050000084CB90
:10076000F8B54FF0000504002E46009502D0E06D6C
:1007700010B107E00120F8BD204600F0EFF8266632
:1007800084F8586020688168C1F3407119B18168AC
:100790006A4A1140816020688168C1F3007189B99B
:1007A0008168674A114041F080518160654866491F
:1007B0000068B0FBF1F04000801C00E0401E00909B
:1007C0000028FBD120688168C1F3007141B9E16D57
:1007D00041F01001E165216E41F001012166012522
:1007E00001F01AFBE16DC90600D430B1E06D40F0B4
:1007F0001000E06501252846F8BDE06D20F480700A
:1008000040F00200E0652068806810F0010F11D10F
:100810004FF0A04080684D4900F00100896801F068
:100820000101084306D14A486168826822F47C12BB
:100830000A438260E168E06B627F0843A16841EA95
:100840004231084394F8241040EA0140012904D1C0
:10085000218D404A02EB41410843E16A29B101F48C
:100860007871226B014342EA01002168CA683A4B61
:100870001A400243CA6020680169626B21F040613E
:1008800011430161206801F0C7FA0646206801F0B3
:10089000BFFA30432ED1207F94F83810800340EA0D
:1008A00041022068C16844F2020399431143C160C8
:1008B00020690028206801690AD041F48031016173
:1008C000206850F8C01F22696FF30D01114307E043
:1008D00021F480310161206850F8C01F6FF30D01D1
:1008E000016094F8400001280CD02068016921F0D3
:1008F00001010161606901282068016B21F00F018D
:1009000011D013E0D4E911010843D4E913121143C3
:10091000084321680A6940F2FC739A43104340F08F
:1009200001000861E6E7226A521E11430163E06D8F
:1009300020F0020040F00100E0655CE7C0FFFF5FCF
:10094000C0FFFF7F18000020400D03000001005091
:10095000000300500000FEFF0740F0FFF0B587B035
:10096000044614216846FFF75CFC214B26680024EE
:100970001A6803251F482049521CB6F1A04F06D023
:100980001E4FBE4231D11A60012A16D01DE01A60F6
:10099000012A07D1CA6C42F40052CA64CA6C02F43C
:1009A00000520592CA6C42F00202CA64C96C01F09E
:1009B000020105914FF4805111E0CA6C42F40052DB
:1009C000CA64CA6C02F400520592CA6C42F0020278
:1009D000CA64C96C01F0020105914FF40041CDE9F0
:1009E00000150294694600F00BF807B0F0BD000056
:1009F00000000020000400480010024000010050E8
:100A00002DE9FC4FDFF8A0A1002301250AF1040B1A
:100A100003244FF00F0C0BF1040EBDE005FA03F6B2
:100A200032406FD04F68012F05D0022F03D0112F15
:100A300001D0122F17D1D0F808905F0004FA07F800
:100A400029EA08090097D1F80C8008FA07F848EA63
:100A50000908C0F808804768B7430E79C6F3001646
:100A60009E403E434660C6684FEA430804FA08F7D2
:100A7000BE4301978F6807FA08F73743C7604E688F
:100A8000022E01D0122E13D1DE0800EB860600964E
:100A9000366A5F07FF0E0CFA07F926EA0906D1F855
:100AA000109009FA07F949EA0609009EC6F8209055
:100AB0000668019FBE430F7907F0030707FA08F79E
:100AC000374307604E68F60065D5384E376E47F0FD
:100AD00001073766366E23F0030706F0010600961D
:100AE000334E3E44B146B6689F074FEA17780CFA7A
:100AF00008F7BE43B0F1904F05D02E4FB84204D155
:100B0000012717E047E0002714E02B4FB84201D13E
:100B100002270FE0294FB84201D103270AE0284FEE
:100B2000B84201D1042705E0264FB84201D105277C
:100B300000E0062707FA08F73743C9F80870DAF823
:100B400000605746D1F8048096435FEAC83800D564
:100B500016433E60DBF800605F46D1F804809643A0
:100B60005FEA883800D516433E60DEF800607746BD
:100B7000D1F8048096435FEAC82800D516433E604A
:100B8000094F0C373E68D1F8048096435FEA882805
:100B900000D516433E605B1C0A6832FA03F67FF408
:100BA0003DAFBDE8FC8F0000000401400010024092
:100BB000000001400004004800080048000C004804
:100BC00000100048001400480069084000D00120CF
:100BD00070470AB18161704781627047014880683F
:100BE000704700000C0000200248816842681144F0
:100BF000816070470C00002010B50024032000F035
:100C000073F8032000F008F808B1012401E000F0B7
:100C100025F8204610BD000070B50E4E0546002494
:100C2000706898B14FF47A71B1FBF0F00A49096825
:100C3000B1FBF0F000F040FD40B9102D06D20022CB
:100C40002946501E00F030F8356000E001242046AF
:100C500070BD00000C000020180000200A4882B07F
:100C6000016E41F001010166016E01F00101009188
:100C7000816D41F080518165806D00F08050009061
:100C800002B000F0A1B8000000100240002809DB0B
:100C900000F01F02012191404009800000F1E02096
:100CA000C0F8001170470000F0B40E4B1B680C46F2
:100CB000C3F30223C3F10705042D00D90425191D30
:100CC000072901D2002300E0DB1E012606FA05F108
:100CD000491E214099409E40761E16403143F0BC8B
:100CE00001F034BC0CED00E0064900F00702086892
:100CF0004FF6FF03184040EA0220034A1043086001
:100D0000704700000CED00E00000FA052B492C4B69
:100D10000A6832214A432B4940B1B0F5007F086888
:100D200029D020F4C06040F480602CE00868C0F353
:100D30004120022804D051F8800F20F4807022E076
:100D4000D1F8800020F48070C1F88000086820F499
:100D5000C06040F400700860B2FBF3F0401C00E09B
:100D6000401E4A69520501D50028F9D1486940055D
:100D70000AD503207047C0F34120022806D051F85D
:100D8000800F40F48070086000207047D1F8800028
:100D900040F48070C1F88000086820F4C06040F41E
:100DA00000700860B2FBF3F0401C00E0401E4A698E
:100DB0005205DBD50028F9D1D8E700001800002043
:100DC00040420F00007000400248816841F48041B9
:100DD00081607047007000402DE9F84304460068C8
:100DE00000269D4D00035ED5A86D0027C00008D4E5
:100DF000A86D40F08050A865A86D012700F08050D4
:100E00000090DFF85892D9F8001041F48071C9F8C9
:100E10000010FFF7E3FE804606E000BFFFF7DEFEAE
:100E2000A0EB080002282BD8D9F80000C005F5D5A2
:100E3000D5F8900010F4407014D0216C814211D08C
:100E4000D5F89000D5F8901020F4407041F480312E
:100E5000C5F89010D5F8901021F48031C5F89010A5
:100E6000C5F89000C00711D0FFF7B8FE804641F2E8
:100E7000883907E0FFF7B2FEA0EB0801494501D928
:100E800003260BE0D5F890008007F3D5D5F8900045
:100E9000216C20F440700843C5F890001FB1A86D84
:100EA00020F08050A8652078C00707D0D5F88800CA
:100EB000616820F003000843C5F8880020788007A7
:100EC00007D5D5F88800A16820F00C000843C5F8C4
:100ED00088002078400707D5D5F88800E16820F021
:100EE00030000843C5F888002078000707D5D5F8FA
:100EF0008800216920F0C0000843C5F888002078E8
:100F0000800607D5D5F88800616920F44060084361
:100F1000C5F888002078400607D5D5F88800A16973
:100F200020F440500843C5F888002078000607D513
:100F3000D5F88800E16920F440400843C5F88800EE
:100F40002088C00507D5D5F88800216A20F44030F4
:100F50000843C5F888002088800507D5D5F88800A3
:100F6000616A20F440200843C5F8880020884005C5
:100F70000FD5D5F88800A16A20F440100843C5F8C1
:100F80008800A06AB0F5801F03D1E86840F48010A3
:100F9000E860208800050FD5D5F88800E16A20F4C4
:100FA00040000843C5F88800E06AB0F5800F03D11F
:100FB000E86840F48010E8602088C0040FD5D5F8B8
:100FC0008800216B20F040700843C5F88800206B32
:100FD000B0F1807F03D1E86840F48010E860208899
:100FE0004FF0006180040ED5D5F88800626B20F0C8
:100FF00040601043C5F88800606B884203D1E86800
:1010000040F48010E860208840040ED5D5F88800B0
:10101000A26B20F040601043C5F88800A06B8842A6
:1010200003D1E86840F48010E860208800040FD500
:10103000D5F88800E16B20F040500843C5F88800DF
:10104000E06BB0F1805F03D1E86840F48030E86085
:101050003046BDE8F88300000010024000700040F8
:101060002DE9F0470E4605004FF0000725D0DFF8C8
:10107000AC81D8F8000000F00F00B0420CD2D8F8D4
:10108000001021F00F013143C8F80010D8F800001B
:1010900000F00F00B04210D12968614CC80741F23E
:1010A000883A5AD06868DFF87C91032808D0022873
:1010B00020682DD0400500282CDB0120BDE8F087FA
:1010C00020688001F9D5E06800F00302E068C0F311
:1010D0000310401C032A19D0534A00BFB2FBF0F0A2
:1010E000E268C2F306225043E268C2F34162521C36
:1010F0005200B0FBF2F0484517D9A06810F0F00F8D
:101100000CD0880711D5A86840B10EE0474AE5E742
:101110008003D0E700F092F8484506D9A06820F097
:10112000F00040F08000A0608027A068696820F08F
:1011300003000843A060FFF751FD814606E000BFB1
:10114000FFF74CFDA0EB090151453AD8A06869684A
:1011500000F00C00B0EB810FF2D12868810714D5A4
:10116000400703D5A06840F4E060A060287800073D
:1011700005D5A06820F4605040F4E060A060A0684D
:10118000A96820F0F000084304E0802F03D1A06894
:1011900020F0F000A060D8F80010404601F00F01E8
:1011A000B14216D9016821F00F0131430160FFF708
:1011B00015FD074607E000BFFFF710FDC11B5145B5
:1011C00001D903207AE7D8F8000000F00F00B04200
:1011D000F2D12878400705D5A068E96820F4E060DE
:1011E0000843A0602878000706D5A068296920F484
:1011F000605040EAC100A06000F020F8A1680C4AED
:10120000C1F30311515C01F01F01C8400949086096
:1012100009480068BDE8F047FFF7FEBC0020024027
:101220000010024000B4C4040024F40000366E0133
:10123000B0250008180000200C000020184910B547
:101240008868C0F381021748012A0BD08A68164BC0
:10125000C2F38102022A06D08A68C2F38102032AFD
:1012600003D0002010BD184610BDCA6802F0030468
:10127000CA68C2F30312521C032C02D0B0FBF2F076
:1012800001E0B3FBF2F0CA68C968C2F3062250431A
:10129000C1F34161491C4900B0FBF1F010BD0000F1
:1012A000001002400024F40000366E012DE9F843DE
:1012B00004007AD02078FA4DC00747D0A868E968C2
:1012C00000F00C0001F003010C2802D0082817D010
:1012D00001E0032914D06068B0F5803F17D0B0F565
:1012E000A02F286817D020F480302860286820F4C8
:1012F000802028606068E0B1FFF770FC064614E0CB
:101300002868800322D560680028D2D01EE02868B3
:1013100040F48030EDE740F480202860F7E700BF1C
:10132000FFF75CFC801B642870D828688003F7D521
:101330000CE0FFF753FC064605E000BFFFF74EFC4C
:10134000801B6428F0D828688003F7D420788007B1
:101350004CD5A868E96800F00C0001F003010C28E6
:1013600002D004280DD001E002290AD0E06800284C
:1013700028682BD040F480702860FFF72FFC0646C9
:1013800019E02868400502D5E068002891D0686817
:10139000217C20F0FE4040EA01606860C14800689E
:1013A000FFF73AFC002800D120E076E1FFF716FCB9
:1013B000801B0228B8D828684005F7D56868217CCA
:1013C00020F0FE4040EA016068600FE020F4807089
:1013D0002860FFF703FC064605E000BFFFF7FEFBB1
:1013E000801B0228A0D828684005F7D42078000781
:1013F00029D560690028D5F8940013D040F0010089
:10140000C5F89400FFF7EAFB064606E090E000BF4F
:10141000FFF7E4FB801B022886D8D5F894008007EC
:10142000F6D510E020F00100C5F89400FFF7D6FBD8
:10143000064604E0FFF7D2FB801B022878D8D5F8D7
:1014400094008007F6D42078400761D5A86D002667
:10145000C00008D4A86D40F08050A865A86D012692
:1014600000F08050009090480168C90511D40168CF
:10147000804641F480710160FFF7B0FB074604E04D
:10148000FFF7ACFBC01B022852D8D8F80000C005FB
:10149000F6D5A068012815D00528D5F8900016D0FB
:1014A00020F00100C5F89000D5F8900020F004006D
:1014B000C5F89000A06841F28838B8B1FFF78EFBFC
:1014C00007460EE0D5F8900040F00100F0E740F04C
:1014D0000400C5F89000F5E7FFF780FBC11B41450C
:1014E00026D8D5F890008007F6D50CE0FFF776FBFC
:1014F000074604E0FFF772FBC11B414518D8D5F839
:1015000090008007F6D41EB1A86D20F08050A86529
:101510002078800629D5A0690028D5F8980013D036
:1015200040F00100C5F89800FFF758FB064606E0BA
:1015300077E000BFFFF752FB801B022877D8D5F871
:1015400098008007F6D510E020F00100C5F898005B
:10155000FFF744FB064604E0FFF740FB801B022830
:1015600065D8D5F898008007F6D4E069F0B3A9688B
:10157000C1F38101032961D00228286820F080701E
:1015800028600BD0E86820F00300E860E86847496D
:101590000840E860FFF722FB04464BE0FFF71EFB24
:1015A000064604E0FFF71AFB801B02283FD8286894
:1015B0008001F7D4F4E908016FF00F0202EB01118A
:1015C0000843218A5204490802EB4151A26841EACA
:1015D00002210843217D4FF07E42490802EB416120
:1015E0000843217B40EAC160E96800E062E0304ADC
:1015F00011400843E860286840F080702860E8687F
:1016000040F08070E860FFF7E9FA044605E000BFAB
:10161000FFF7E4FA001B022809D828688001F7D5F3
:1016200048E004E0FFF7DAFA001B022802D90320A1
:10163000BDE8F88328688001F4D43BE00128F7D0A6
:10164000E868226A00F00301914226D1616A00F045
:10165000F0020901103991421FD1A26A00F4FE4143
:10166000B1EB022F19D194F82C2000F07841B1EBA6
:10167000C26F12D1218E00F4C00249084905A1F5BC
:101680000011914209D194F8341000F0C06049086B
:101690004906A1F1007181420CD00120C8E7000089
:1016A000001002400C00002000700040FFFFEEFE22
:1016B0000C809F010020BBE710B5401EB0F1807F79
:1016C00001D3012010BD4FF0E02460610F216017AD
:1016D00000F03CFF0020A06107202061002010BD29
:1016E000704770477047704770477047F0B590F883
:1016F0003C20012A3AD0012580F83C50022280F893
:101700003D2003685A689C68194E1A4FB34201D0B5
:10171000BB4204D122F4700C4A6842EA0C02DFF8A2
:1017200058C002EA0C02D1F800C04CEA020CC3F81F
:1017300004C00268B2420DD0B2F1804F0AD00F4B04
:101740009A4207D00E4B9A4204D0BA4202D00D4BB7
:101750009A4204D1896824F080031943916080F88B
:101760003D50002180F83C100846F0BD0220F0BD3D
:10177000002C0140003401408FFFFFFD00040040B9
:101780000008004000400140704710B5040003D03D
:1017900094F83D0010B107E0012010BD002084F84E
:1017A0003C00204600F022F8022084F83D00211D74
:1017B000206800F099FD012084F8480084F83E007C
:1017C00084F83F0084F8400084F8410084F8420027
:1017D00084F8430084F8440084F8450084F8460007
:1017E00084F8470084F83D00002010BD10B586B095
:1017F000044614216846FEF714FD2368002128489A
:101800000222B3F1804F27D0264CA34222D1836D10
:1018100043F002038365836D03F002030593C36CF9
:1018200043F00203C364C06C00F002000590102076
:101830000090CDE90121CDE9031269461A48FFF76E
:10184000DFF8002202211D20FFF72EFA5FF01D00B5
:10185000FFF71CFA06B010BD836D43F001038365EA
:10186000836D03F001030593C36C43F00103C3646C
:10187000C06C00F0010005904FF400400090CDE9ED
:1018800001210120CDE9031069464FF09040FFF798
:10189000B7F8002202211C20FFF706FA1C20D7E728
:1018A00000100240000400400004004870B50446E7
:1018B00090F83C00012814D0012584F83C50022007
:1018C00084F83D0022689068344B184020F47F4033
:1018D00090600868702827D010DC10F00F0F03D03C
:1018E0004AE04FF0020070BD4FEA2012072A43D2AF
:1018F000DFE802F05050505048313900284BC21AEE
:10190000984247D009DCB0F5805F35D0B0F5005F74
:1019100015D0B0F1101F2FD13CE0102A3AD0202A68
:1019200038D0502A28D135E0CB68D1E90121206890
:1019300000F032FD2068816841F0770109E0CB6852
:10194000D1E90121206800F027FD2068816841F479
:101950008041816010E0CA684968206800F080FD1D
:101960005021206806E0CA684968206800F0C0FD80
:101970006021206800F01AFD84F83D50002084F8B2
:101980003C0070BDCA684968206800F069FD4021CC
:101990002068EFE7226801461046EBE788FFCEFF9C
:1019A0002000100070472DE9F041054690F83C00FA
:1019B0000C46012836D0012085F83C008AB3042A61
:1019C00042D02868082A51D0D4E90023E168066A89
:1019D00026F480560662C669076A26F4407646EA0F
:1019E00003234FF6FF7606EA013123F470431943CF
:1019F0004FF4204627F4204306EA02321A43C1611D
:101A000002622868C16921F44061C1612868C16926
:101A1000A26841EA0221C161002085F83C00BDE8CE
:101A2000F08101E00220FAE7D4E90012E3682868B7
:101A300000F028FD2868816921F00C018161286887
:101A40008169A26811430FE0D4E90012E3682868B5
:101A500000F060FD2868816921F440618161286897
:101A60008169A26841EA02218161D5E7D4E90027B2
:101A7000267B016A21F480710162C169036A21F049
:101A80000301394321F0F00731074FF4206647EA9C
:101A9000116123F4206306EA02221A43C161026243
:101AA0002868C16921F00C01C1612868C169A26878
:101AB0001143B0E710B5040003D094F83D0010B115
:101AC00007E0012010BD002084F83C00204600F013
:101AD00022F8022084F83D00211D206800F004FC5B
:101AE000012084F8480084F83E0084F83F0084F820
:101AF000400084F8410084F8420084F8430084F8F0
:101B0000440084F8450084F8460084F8470084F8CF
:101B10003D00002010BD704770B5044600680169A3
:101B20004FF00005C943890715D4C168C943890727
:101B300011D4E91E016101202077206880698007A7
:101B4000204602D0FFF72EFF04E000F0E3F8204625
:101B500000F0E1F8257720680169C943490717D4E7
:101B6000C168C943490713D46FF004010161022021
:101B700020772068806910F4407F204602D0FFF76C
:101B800011FF04E000F0C6F8204600F0C4F8257705
:101B900020680169C943090716D4C168C943090708
:101BA00012D46FF008010161042020772068C06919
:101BB0008007204602D0FFF7F5FE04E000F0AAF807
:101BC000204600F0A8F8257720680169C943C906B6
:101BD00017D4C168C943C90613D46FF0100101615D
:101BE000082020772068C06910F4407F204602D08A
:101BF000FFF7D8FE04E000F08DF8204600F08BF8E7
:101C0000257720680169C943C90708D1C168C9435C
:101C1000C90704D1891E0161204600F07DF82068C3
:101C20000169C943090609D4C168C943090605D435
:101C30006FF0800101612046FFF753FD20680169C4
:101C4000C943C90509D4C168C943090605D46FF45D
:101C5000807101612046FFF743FD20680169C94397
:101C6000490609D4C168C943490605D46FF040014B
:101C70000161204600F07CF820680169C9438906AB
:101C800009D4C168C943890605D46FF020010161F8
:101C90002046FFF727FD20680169C943C90209D41E
:101CA000C168C943C90205D46FF48011016120469F
:101CB000FFF71AFD20680169C943890209D4C16888
:101CC000C943890205D46FF4001101612046FFF772
:101CD0000AFD20680169C943490209D4C168C943A2
:101CE000490205D46FF4800101612046FFF7FDFC35
:101CF00020680169C94309020BD4C168C9430902BC
:101D000007D46FF4000101612046BDE87040FFF781
:101D10003BBD70BD70477047704770B5044690F882
:101D20003C00012812D0012584F83C50022084F8A0
:101D30003D00204600F044FB01004FF0000007D0BA
:101D400084F83D5084F83C00012070BD022070BD35
:101D50002168CA6822F04002CA602168CA6822F479
:101D60008042CA6084F83D5084F83C00002070BD79
:101D70007047FEE7114810B50168114C6268891A76
:101D8000642919D30068606000F01CF8E070A27844
:101D900020EA02014240824361702270A070032950
:101DA00002D1552000F058F82078032804D1BDE86E
:101DB0001040002000F050B810BD000014000020BA
:101DC0000400002070B50E4D002401212846FEF7C6
:101DD000FBFE00B9012402212846FEF7F5FE00B9FA
:101DE000022404212846FEF7EFFE00B90324012156
:101DF0004FF09040FEF7E8FE00B90424204670BD85
:101E00000004004800EB8100006E00F0F8407047CD
:101E10008068C0F3C00070478068C0F380007047DE
:101E20008068C0F380007047042303EAD15310B5E3
:101E300018444369C1F3045107248C40A3438A40EA
:101E40001343436110BD00EB8100016E21F000419E
:101E5000114301667047000070B5124D044601221F
:101E600004212846FEF7B5FE0F4E01224FF6FF7102
:101E70003046FEF7AEFE012204212846FEF7A9FEF9
:101E8000012204212846FEF7A4FE2102002230464A
:101E9000FEF79FFE2846BDE8704001220421FEF7B0
:101EA00098BE0000000C00480008004810B5094C1E
:101EB000012204212046FEF78CFE01224FF6FF711D
:101EC0000548FEF786FE20460122BDE810400421A9
:101ED000FEF77FBE000C00480008004830B58BB00C
:101EE000002408940994202168460A94FEF799F981
:101EF0001D484FF0A041042501604FF48021C0E946
:101F00000114C4600461C0E90545047744770121E8
:101F1000016280F82440C462046380F83840C463DE
:101F200080F84040FEF71CFC08B1FEF799F908A9BB
:101F30000D480894FEF796F908B1FEF791F90B48A1
:101F4000009006200190072002907F200594CDE9A3
:101F5000030569460448FEF7F1F9002801D0FEF7B1
:101F60007FF90BB030BD00001C0000200008302EAF
:101F700030B589B020216846FEF753F91948184951
:101F8000002401608902C0E90114C46004250461D1
:101F9000C0E90545047744770121016280F82440B7
:101FA000C462046380F83840C46380F84040FEF7A0
:101FB000D7FB08B1FEF754F90B48009006200190BA
:101FC000072002907F200594CDE903056946054866
:101FD000FEF7B4F9002801D0FEF742F909B030BD90
:101FE00000010050880000200080F03EF0B587B06E
:101FF00014216846FEF715F92D48C16C41F0040123
:10200000C164C16C01F004010591C16C41F0200173
:10201000C164C16C01F020010591C16C41F0010166
:10202000C164C16C01F001010591C16C41F0020174
:10203000C164C16C01F002010591C16C41F008015D
:10204000C164C06C1B4E00F008004FF47F44059043
:10205000002221463046FEF7BCFD174F0022042126
:102060003846FEF7B6FD0125CDE90045002402946F
:10207000694630460394FEF7C3FCCDE90054694637
:102080004FF090400294FEF7BBFC0720CDE900041E
:1020900069460A480294FEF7B3FC04200090CDE99B
:1020A0000154694638460394FEF7AAFC07B0F0BD18
:1020B0000010024000080048000C004800040048DE
:1020C00010B590B0002409940A940B94142104A82C
:1020D0000C94FEF7A6F827480D940F940E940094E4
:1020E000019402944FF08041039401604F21C0E9B4
:1020F00001144FF6FF71C0E903148461FFF745FB3B
:1021000008B1FEF7ADF84FF48050099009A91948BD
:10211000FFF7CCFB08B1FEF7A3F81648FFF7CAFC9F
:1021200008B1FEF79DF8042004905020CDE9050485
:1021300004A910480894FFF7F0FD08B1FEF790F8E5
:102140000D940DA90B480F94FFF7D0FA08B1FEF7D4
:1021500087F80120CDE90040029400226946054835
:102160000394FFF720FC002801D0FEF779F810B0A7
:1021700010BD0000F400002010B590B000240994B8
:102180000A940B94142104A80C94FEF74AF82748EB
:102190000D940F940E940094019402942249039498
:1021A00001604F21C0E901144FF6FF71C0E903142B
:1021B0008461FFF7EAFA08B1FEF752F84FF4805055
:1021C000099009A91948FFF771FB08B1FEF748F813
:1021D0001648FFF76FFC08B1FEF742F804200490A0
:1021E0005020CDE9050404A910480894FFF795FD97
:1021F00008B1FEF735F80D940DA90C480F94FFF7C0
:1022000075FA08B1FEF72CF80120CDE900400294E0
:102210000022694605480394FFF7C5FB002801D05A
:10222000FEF71EF810B010BD000400404001002071
:10223000FEE7FEE770477047FEF7D6BC10B5A4B0C6
:1022400038216846FDF7EDFF14211FA8FDF7E9FFCF
:1022500044210EA8FDF7E5FF4FF40070FEF756FD90
:10226000012000900004019002200324CDE907041E
:102270001421CDE90A100C900D9009946846FFF7DF
:1022800015F808B172B6FEE70F20CDE91F04002053
:1022900021902290239002211FA8FEF7E1FE08B1B1
:1022A00072B6FEE74FF400400E9080031D900EA81A
:1022B000FEF792FD002801D072B6FEE724B010BDF3
:1022C0000248016841F470010160704788ED00E048
:1022D0000148FFF721BC0000F40000200148FFF78F
:1022E0001BBC0000400100202DE9F0430268234B95
:1022F000234D244E244C4FF08049984207D0484546
:1023000005D0A84203D0B04201D0A04203D122F0B0
:1023100070074A683A431D4FDFF874C0DFF87480D5
:1023200098420DD048450BD0A84209D0B04207D002
:10233000A04205D0B84203D0604501D0404503D14A
:1023400022F44075CA682A434D6922F080022A436C
:1023500002608A68C2620A688262984207D0A0421C
:1023600005D0B84203D0604501D0404501D109698C
:10237000016301214161BDE8F0830000002C0140B0
:1023800000040040000800400034014000400140CB
:10239000004401400048014010B5846842EA03222D
:1023A00024F47F440A432243826010BD8268034BB9
:1023B0001A400A4342F00701816070478FFFCFFF48
:1023C00010B50468A268234B1A404B681343224A95
:1023D00013400A681A43A2604A68602A32D006DCB9
:1023E000302A34DD402A0ED0502A30D124E01B4B55
:1023F0009A422CDA702A2AD10B69D1E902210068AD
:10240000FFF7CAFF23E00A68052A13D0B2F1011FC3
:1024100010D00268136A146A24F00104146202687E
:102420009469096924F0F00444EA0111916100689B
:1024300003620CE0012010BD0A698968006800F0A1
:102440000FF804E00A698968006800F051F800207C
:1024500010BD00008FFFCFFFF8FFFEFF300010001F
:1024600010B5036A046A24F001040462846924F04C
:10247000F00444EA021423F00A020A43846102626F
:1024800010BD000070B5046A24F001040462846980
:10249000056A124EB0420ED0B0F1804F0BD0104EF4
:1024A000B04208D00F4EB04205D00F4EB04202D01D
:1024B0000E4EB04203D124F00304144301E044F073
:1024C00001041A0724F0F00444EA126225F00A031A
:1024D00001F00A0119438261016270BD002C0140C4
:1024E000000400400008004000340140004001406A
:1024F00010B5036A23F0100303628369046A23F4AE
:10250000704343EA023224F0A00343EA01118261DE
:10251000016210BD30B5046A24F0100404628469BD
:10252000056A24F4407444EA022222F470444FF60F
:10253000FF7202EA03322243A02425F0A00304EA3A
:10254000011119438261016230BDFEE70907090EDE
:10255000002804DB00F1E02080F80014704700F050
:102560000F0000F1E02080F8141D704702E008C859
:10257000121F08C1002AFAD170477047002001E0FD
:1025800001C1121F002AFBD17047FEF735FBFFF790
:1025900055FEFFF72BFDFFF7A1FCFFF7E9FCFFF766
:1025A0008FFDFFF7E9FDFFF781FCFFF7E3FBFCE799
:1025B00000000000000000000102030406070809F3
:1025C000E0250008000000201C0000006C25000829
:1025D000FC2500081C000020740500007C25000874
:1025E00000000000000000000000000010000000DB
:0C25F00001000000000000000024F400C6
:04000005080001D915
:00000001FF
